{
	"data": {
		"bytecode": {
			"linkReferences": {},
			"object": "608060405234801561001057600080fd5b506103db806100206000396000f3fe608060405234801561001057600080fd5b506004361061002b5760003560e01c80630bacec2114610030575b600080fd5b61004a60048036038101906100459190610142565b610062565b604051610059939291906101bd565b60405180910390f35b60008060008060648760026100779190610223565b61008191906102ac565b9050600281101561009157600290505b6000818861009f91906102dd565b90506000606488836100b19190610223565b6100bb91906102ac565b905060006127108a6100cd9190610223565b9050600088836100dd9190610223565b9050600082826100ed9190610311565b905082828298509850985050505050505093509350939050565b600080fd5b6000819050919050565b61011f8161010c565b811461012a57600080fd5b50565b60008135905061013c81610116565b92915050565b60008060006060848603121561015b5761015a610107565b5b60006101698682870161012d565b935050602061017a8682870161012d565b925050604061018b8682870161012d565b9150509250925092565b61019e8161010c565b82525050565b6000819050919050565b6101b7816101a4565b82525050565b60006060820190506101d26000830186610195565b6101df6020830185610195565b6101ec60408301846101ae565b949350505050565b7f4e487b7100000000000000000000000000000000000000000000000000000000600052601160045260246000fd5b600061022e8261010c565b91506102398361010c565b9250817fffffffffffffffffffffffffffffffffffffffffffffffffffffffffffffffff0483118215151615610272576102716101f4565b5b828202905092915050565b7f4e487b7100000000000000000000000000000000000000000000000000000000600052601260045260246000fd5b60006102b78261010c565b91506102c28361010c565b9250826102d2576102d161027d565b5b828204905092915050565b60006102e88261010c565b91506102f38361010c565b925082821015610306576103056101f4565b5b828203905092915050565b600061031c826101a4565b9150610327836101a4565b9250827f800000000000000000000000000000000000000000000000000000000000000001821260008412151615610362576103616101f4565b5b827f7fffffffffffffffffffffffffffffffffffffffffffffffffffffffffffffff01821360008412161561039a576103996101f4565b5b82820390509291505056fea264697066735822122072e65aed0a643921f3bb0be658cfb0f560ebabbfa929cb7569391512a246b27964736f6c634300080a0033",
			"opcodes": "PUSH1 0x80 PUSH1 0x40 MSTORE CALLVALUE DUP1 ISZERO PUSH2 0x10 JUMPI PUSH1 0x0 DUP1 REVERT JUMPDEST POP PUSH2 0x3DB DUP1 PUSH2 0x20 PUSH1 0x0 CODECOPY PUSH1 0x0 RETURN INVALID PUSH1 0x80 PUSH1 0x40 MSTORE CALLVALUE DUP1 ISZERO PUSH2 0x10 JUMPI PUSH1 0x0 DUP1 REVERT JUMPDEST POP PUSH1 0x4 CALLDATASIZE LT PUSH2 0x2B JUMPI PUSH1 0x0 CALLDATALOAD PUSH1 0xE0 SHR DUP1 PUSH4 0xBACEC21 EQ PUSH2 0x30 JUMPI JUMPDEST PUSH1 0x0 DUP1 REVERT JUMPDEST PUSH2 0x4A PUSH1 0x4 DUP1 CALLDATASIZE SUB DUP2 ADD SWAP1 PUSH2 0x45 SWAP2 SWAP1 PUSH2 0x142 JUMP JUMPDEST PUSH2 0x62 JUMP JUMPDEST PUSH1 0x40 MLOAD PUSH2 0x59 SWAP4 SWAP3 SWAP2 SWAP1 PUSH2 0x1BD JUMP JUMPDEST PUSH1 0x40 MLOAD DUP1 SWAP2 SUB SWAP1 RETURN JUMPDEST PUSH1 0x0 DUP1 PUSH1 0x0 DUP1 PUSH1 0x64 DUP8 PUSH1 0x2 PUSH2 0x77 SWAP2 SWAP1 PUSH2 0x223 JUMP JUMPDEST PUSH2 0x81 SWAP2 SWAP1 PUSH2 0x2AC JUMP JUMPDEST SWAP1 POP PUSH1 0x2 DUP2 LT ISZERO PUSH2 0x91 JUMPI PUSH1 0x2 SWAP1 POP JUMPDEST PUSH1 0x0 DUP2 DUP9 PUSH2 0x9F SWAP2 SWAP1 PUSH2 0x2DD JUMP JUMPDEST SWAP1 POP PUSH1 0x0 PUSH1 0x64 DUP9 DUP4 PUSH2 0xB1 SWAP2 SWAP1 PUSH2 0x223 JUMP JUMPDEST PUSH2 0xBB SWAP2 SWAP1 PUSH2 0x2AC JUMP JUMPDEST SWAP1 POP PUSH1 0x0 PUSH2 0x2710 DUP11 PUSH2 0xCD SWAP2 SWAP1 PUSH2 0x223 JUMP JUMPDEST SWAP1 POP PUSH1 0x0 DUP9 DUP4 PUSH2 0xDD SWAP2 SWAP1 PUSH2 0x223 JUMP JUMPDEST SWAP1 POP PUSH1 0x0 DUP3 DUP3 PUSH2 0xED SWAP2 SWAP1 PUSH2 0x311 JUMP JUMPDEST SWAP1 POP DUP3 DUP3 DUP3 SWAP9 POP SWAP9 POP SWAP9 POP POP POP POP POP POP POP SWAP4 POP SWAP4 POP SWAP4 SWAP1 POP JUMP JUMPDEST PUSH1 0x0 DUP1 REVERT JUMPDEST PUSH1 0x0 DUP2 SWAP1 POP SWAP2 SWAP1 POP JUMP JUMPDEST PUSH2 0x11F DUP2 PUSH2 0x10C JUMP JUMPDEST DUP2 EQ PUSH2 0x12A JUMPI PUSH1 0x0 DUP1 REVERT JUMPDEST POP JUMP JUMPDEST PUSH1 0x0 DUP2 CALLDATALOAD SWAP1 POP PUSH2 0x13C DUP2 PUSH2 0x116 JUMP JUMPDEST SWAP3 SWAP2 POP POP JUMP JUMPDEST PUSH1 0x0 DUP1 PUSH1 0x0 PUSH1 0x60 DUP5 DUP7 SUB SLT ISZERO PUSH2 0x15B JUMPI PUSH2 0x15A PUSH2 0x107 JUMP JUMPDEST JUMPDEST PUSH1 0x0 PUSH2 0x169 DUP7 DUP3 DUP8 ADD PUSH2 0x12D JUMP JUMPDEST SWAP4 POP POP PUSH1 0x20 PUSH2 0x17A DUP7 DUP3 DUP8 ADD PUSH2 0x12D JUMP JUMPDEST SWAP3 POP POP PUSH1 0x40 PUSH2 0x18B DUP7 DUP3 DUP8 ADD PUSH2 0x12D JUMP JUMPDEST SWAP2 POP POP SWAP3 POP SWAP3 POP SWAP3 JUMP JUMPDEST PUSH2 0x19E DUP2 PUSH2 0x10C JUMP JUMPDEST DUP3 MSTORE POP POP JUMP JUMPDEST PUSH1 0x0 DUP2 SWAP1 POP SWAP2 SWAP1 POP JUMP JUMPDEST PUSH2 0x1B7 DUP2 PUSH2 0x1A4 JUMP JUMPDEST DUP3 MSTORE POP POP JUMP JUMPDEST PUSH1 0x0 PUSH1 0x60 DUP3 ADD SWAP1 POP PUSH2 0x1D2 PUSH1 0x0 DUP4 ADD DUP7 PUSH2 0x195 JUMP JUMPDEST PUSH2 0x1DF PUSH1 0x20 DUP4 ADD DUP6 PUSH2 0x195 JUMP JUMPDEST PUSH2 0x1EC PUSH1 0x40 DUP4 ADD DUP5 PUSH2 0x1AE JUMP JUMPDEST SWAP5 SWAP4 POP POP POP POP JUMP JUMPDEST PUSH32 0x4E487B7100000000000000000000000000000000000000000000000000000000 PUSH1 0x0 MSTORE PUSH1 0x11 PUSH1 0x4 MSTORE PUSH1 0x24 PUSH1 0x0 REVERT JUMPDEST PUSH1 0x0 PUSH2 0x22E DUP3 PUSH2 0x10C JUMP JUMPDEST SWAP2 POP PUSH2 0x239 DUP4 PUSH2 0x10C JUMP JUMPDEST SWAP3 POP DUP2 PUSH32 0xFFFFFFFFFFFFFFFFFFFFFFFFFFFFFFFFFFFFFFFFFFFFFFFFFFFFFFFFFFFFFFFF DIV DUP4 GT DUP3 ISZERO ISZERO AND ISZERO PUSH2 0x272 JUMPI PUSH2 0x271 PUSH2 0x1F4 JUMP JUMPDEST JUMPDEST DUP3 DUP3 MUL SWAP1 POP SWAP3 SWAP2 POP POP JUMP JUMPDEST PUSH32 0x4E487B7100000000000000000000000000000000000000000000000000000000 PUSH1 0x0 MSTORE PUSH1 0x12 PUSH1 0x4 MSTORE PUSH1 0x24 PUSH1 0x0 REVERT JUMPDEST PUSH1 0x0 PUSH2 0x2B7 DUP3 PUSH2 0x10C JUMP JUMPDEST SWAP2 POP PUSH2 0x2C2 DUP4 PUSH2 0x10C JUMP JUMPDEST SWAP3 POP DUP3 PUSH2 0x2D2 JUMPI PUSH2 0x2D1 PUSH2 0x27D JUMP JUMPDEST JUMPDEST DUP3 DUP3 DIV SWAP1 POP SWAP3 SWAP2 POP POP JUMP JUMPDEST PUSH1 0x0 PUSH2 0x2E8 DUP3 PUSH2 0x10C JUMP JUMPDEST SWAP2 POP PUSH2 0x2F3 DUP4 PUSH2 0x10C JUMP JUMPDEST SWAP3 POP DUP3 DUP3 LT ISZERO PUSH2 0x306 JUMPI PUSH2 0x305 PUSH2 0x1F4 JUMP JUMPDEST JUMPDEST DUP3 DUP3 SUB SWAP1 POP SWAP3 SWAP2 POP POP JUMP JUMPDEST PUSH1 0x0 PUSH2 0x31C DUP3 PUSH2 0x1A4 JUMP JUMPDEST SWAP2 POP PUSH2 0x327 DUP4 PUSH2 0x1A4 JUMP JUMPDEST SWAP3 POP DUP3 PUSH32 0x8000000000000000000000000000000000000000000000000000000000000000 ADD DUP3 SLT PUSH1 0x0 DUP5 SLT ISZERO AND ISZERO PUSH2 0x362 JUMPI PUSH2 0x361 PUSH2 0x1F4 JUMP JUMPDEST JUMPDEST DUP3 PUSH32 0x7FFFFFFFFFFFFFFFFFFFFFFFFFFFFFFFFFFFFFFFFFFFFFFFFFFFFFFFFFFFFFFF ADD DUP3 SGT PUSH1 0x0 DUP5 SLT AND ISZERO PUSH2 0x39A JUMPI PUSH2 0x399 PUSH2 0x1F4 JUMP JUMPDEST JUMPDEST DUP3 DUP3 SUB SWAP1 POP SWAP3 SWAP2 POP POP JUMP INVALID LOG2 PUSH5 0x6970667358 0x22 SLT KECCAK256 PUSH19 0xE65AED0A643921F3BB0BE658CFB0F560EBABBF 0xA9 0x29 0xCB PUSH22 0x69391512A246B27964736F6C634300080A0033000000 "
		},
		"gasEstimates": {
			"creation": {
				"codeDepositCost": "197400",
				"executionCost": "238",
				"totalCost": "197638"
			},
			"external": {
				"getReward(uint256,uint256,uint256)": "infinite"
			}
		},
		"methodIdentifiers": {
			"getReward(uint256,uint256,uint256)": "0bacec21"
		}
	},
	"abi": [
		{
			"inputs": [
				{
					"internalType": "uint256",
					"name": "amount",
					"type": "uint256"
				},
				{
					"internalType": "uint256",
					"name": "multiplierX100",
					"type": "uint256"
				},
				{
					"internalType": "uint256",
					"name": "x",
					"type": "uint256"
				}
			],
			"name": "getReward",
			"outputs": [
				{
					"internalType": "uint256",
					"name": "",
					"type": "uint256"
				},
				{
					"internalType": "uint256",
					"name": "",
					"type": "uint256"
				},
				{
					"internalType": "int256",
					"name": "",
					"type": "int256"
				}
			],
			"stateMutability": "pure",
			"type": "function"
		}
	]
}