{
	"data": {
		"bytecode": {
			"object": "6060604052341561000c57fe5b5b33600060006101000a81548173ffffffffffffffffffffffffffffffffffffffff021916908373ffffffffffffffffffffffffffffffffffffffff1602179055505b5b6103888061005f6000396000f30060606040526000357c0100000000000000000000000000000000000000000000000000000000900463ffffffff16806370a082311461005c578063722713f7146100a6578063d0e30db0146100cc578063f3fef3a3146100d6575bfe5b341561006457fe5b610090600480803573ffffffffffffffffffffffffffffffffffffffff16906020019091905050610115565b6040518082815260200191505060405180910390f35b34156100ae57fe5b6100b661015f565b6040518082815260200191505060405180910390f35b6100d46101a7565b005b34156100de57fe5b610113600480803573ffffffffffffffffffffffffffffffffffffffff169060200190919080359060200190919050506101f7565b005b6000600160008373ffffffffffffffffffffffffffffffffffffffff1673ffffffffffffffffffffffffffffffffffffffff1681526020019081526020016000205490505b919050565b6000600160003373ffffffffffffffffffffffffffffffffffffffff1673ffffffffffffffffffffffffffffffffffffffff1681526020019081526020016000205490505b90565b34600160003373ffffffffffffffffffffffffffffffffffffffff1673ffffffffffffffffffffffffffffffffffffffff168152602001908152602001600020600082825401925050819055505b565b80600160003373ffffffffffffffffffffffffffffffffffffffff1673ffffffffffffffffffffffffffffffffffffffff168152602001908152602001600020541115156102455760006000fd5b803073ffffffffffffffffffffffffffffffffffffffff163111151561026b5760006000fd5b7ff74fad994845ef73476114306db4fb3ddeafc0141ecbc906ba670c6d1f037dc68282604051808373ffffffffffffffffffffffffffffffffffffffff1673ffffffffffffffffffffffffffffffffffffffff1681526020018281526020019250505060405180910390a18173ffffffffffffffffffffffffffffffffffffffff168160405180905060006040518083038185876185025a03f1925050505080600160003373ffffffffffffffffffffffffffffffffffffffff1673ffffffffffffffffffffffffffffffffffffffff168152602001908152602001600020600082825403925050819055505b50505600a165627a7a72305820cd7048fb31a80611f69d89cd9551fa596303503551e514ae45122f9257944acd0029",
			"opcodes": "PUSH1 0x60 PUSH1 0x40 MSTORE CALLVALUE ISZERO PUSH2 0xC JUMPI INVALID JUMPDEST JUMPDEST CALLER PUSH1 0x0 PUSH1 0x0 PUSH2 0x100 EXP DUP2 SLOAD DUP2 PUSH20 0xFFFFFFFFFFFFFFFFFFFFFFFFFFFFFFFFFFFFFFFF MUL NOT AND SWAP1 DUP4 PUSH20 0xFFFFFFFFFFFFFFFFFFFFFFFFFFFFFFFFFFFFFFFF AND MUL OR SWAP1 SSTORE POP JUMPDEST JUMPDEST PUSH2 0x388 DUP1 PUSH2 0x5F PUSH1 0x0 CODECOPY PUSH1 0x0 RETURN STOP PUSH1 0x60 PUSH1 0x40 MSTORE PUSH1 0x0 CALLDATALOAD PUSH29 0x100000000000000000000000000000000000000000000000000000000 SWAP1 DIV PUSH4 0xFFFFFFFF AND DUP1 PUSH4 0x70A08231 EQ PUSH2 0x5C JUMPI DUP1 PUSH4 0x722713F7 EQ PUSH2 0xA6 JUMPI DUP1 PUSH4 0xD0E30DB0 EQ PUSH2 0xCC JUMPI DUP1 PUSH4 0xF3FEF3A3 EQ PUSH2 0xD6 JUMPI JUMPDEST INVALID JUMPDEST CALLVALUE ISZERO PUSH2 0x64 JUMPI INVALID JUMPDEST PUSH2 0x90 PUSH1 0x4 DUP1 DUP1 CALLDATALOAD PUSH20 0xFFFFFFFFFFFFFFFFFFFFFFFFFFFFFFFFFFFFFFFF AND SWAP1 PUSH1 0x20 ADD SWAP1 SWAP2 SWAP1 POP POP PUSH2 0x115 JUMP JUMPDEST PUSH1 0x40 MLOAD DUP1 DUP3 DUP2 MSTORE PUSH1 0x20 ADD SWAP2 POP POP PUSH1 0x40 MLOAD DUP1 SWAP2 SUB SWAP1 RETURN JUMPDEST CALLVALUE ISZERO PUSH2 0xAE JUMPI INVALID JUMPDEST PUSH2 0xB6 PUSH2 0x15F JUMP JUMPDEST PUSH1 0x40 MLOAD DUP1 DUP3 DUP2 MSTORE PUSH1 0x20 ADD SWAP2 POP POP PUSH1 0x40 MLOAD DUP1 SWAP2 SUB SWAP1 RETURN JUMPDEST PUSH2 0xD4 PUSH2 0x1A7 JUMP JUMPDEST STOP JUMPDEST CALLVALUE ISZERO PUSH2 0xDE JUMPI INVALID JUMPDEST PUSH2 0x113 PUSH1 0x4 DUP1 DUP1 CALLDATALOAD PUSH20 0xFFFFFFFFFFFFFFFFFFFFFFFFFFFFFFFFFFFFFFFF AND SWAP1 PUSH1 0x20 ADD SWAP1 SWAP2 SWAP1 DUP1 CALLDATALOAD SWAP1 PUSH1 0x20 ADD SWAP1 SWAP2 SWAP1 POP POP PUSH2 0x1F7 JUMP JUMPDEST STOP JUMPDEST PUSH1 0x0 PUSH1 0x1 PUSH1 0x0 DUP4 PUSH20 0xFFFFFFFFFFFFFFFFFFFFFFFFFFFFFFFFFFFFFFFF AND PUSH20 0xFFFFFFFFFFFFFFFFFFFFFFFFFFFFFFFFFFFFFFFF AND DUP2 MSTORE PUSH1 0x20 ADD SWAP1 DUP2 MSTORE PUSH1 0x20 ADD PUSH1 0x0 SHA3 SLOAD SWAP1 POP JUMPDEST SWAP2 SWAP1 POP JUMP JUMPDEST PUSH1 0x0 PUSH1 0x1 PUSH1 0x0 CALLER PUSH20 0xFFFFFFFFFFFFFFFFFFFFFFFFFFFFFFFFFFFFFFFF AND PUSH20 0xFFFFFFFFFFFFFFFFFFFFFFFFFFFFFFFFFFFFFFFF AND DUP2 MSTORE PUSH1 0x20 ADD SWAP1 DUP2 MSTORE PUSH1 0x20 ADD PUSH1 0x0 SHA3 SLOAD SWAP1 POP JUMPDEST SWAP1 JUMP JUMPDEST CALLVALUE PUSH1 0x1 PUSH1 0x0 CALLER PUSH20 0xFFFFFFFFFFFFFFFFFFFFFFFFFFFFFFFFFFFFFFFF AND PUSH20 0xFFFFFFFFFFFFFFFFFFFFFFFFFFFFFFFFFFFFFFFF AND DUP2 MSTORE PUSH1 0x20 ADD SWAP1 DUP2 MSTORE PUSH1 0x20 ADD PUSH1 0x0 SHA3 PUSH1 0x0 DUP3 DUP3 SLOAD ADD SWAP3 POP POP DUP2 SWAP1 SSTORE POP JUMPDEST JUMP JUMPDEST DUP1 PUSH1 0x1 PUSH1 0x0 CALLER PUSH20 0xFFFFFFFFFFFFFFFFFFFFFFFFFFFFFFFFFFFFFFFF AND PUSH20 0xFFFFFFFFFFFFFFFFFFFFFFFFFFFFFFFFFFFFFFFF AND DUP2 MSTORE PUSH1 0x20 ADD SWAP1 DUP2 MSTORE PUSH1 0x20 ADD PUSH1 0x0 SHA3 SLOAD GT ISZERO ISZERO PUSH2 0x245 JUMPI PUSH1 0x0 PUSH1 0x0 REVERT JUMPDEST DUP1 ADDRESS PUSH20 0xFFFFFFFFFFFFFFFFFFFFFFFFFFFFFFFFFFFFFFFF AND BALANCE GT ISZERO ISZERO PUSH2 0x26B JUMPI PUSH1 0x0 PUSH1 0x0 REVERT JUMPDEST PUSH32 0xF74FAD994845EF73476114306DB4FB3DDEAFC0141ECBC906BA670C6D1F037DC6 DUP3 DUP3 PUSH1 0x40 MLOAD DUP1 DUP4 PUSH20 0xFFFFFFFFFFFFFFFFFFFFFFFFFFFFFFFFFFFFFFFF AND PUSH20 0xFFFFFFFFFFFFFFFFFFFFFFFFFFFFFFFFFFFFFFFF AND DUP2 MSTORE PUSH1 0x20 ADD DUP3 DUP2 MSTORE PUSH1 0x20 ADD SWAP3 POP POP POP PUSH1 0x40 MLOAD DUP1 SWAP2 SUB SWAP1 LOG1 DUP2 PUSH20 0xFFFFFFFFFFFFFFFFFFFFFFFFFFFFFFFFFFFFFFFF AND DUP2 PUSH1 0x40 MLOAD DUP1 SWAP1 POP PUSH1 0x0 PUSH1 0x40 MLOAD DUP1 DUP4 SUB DUP2 DUP6 DUP8 PUSH2 0x8502 GAS SUB CALL SWAP3 POP POP POP POP DUP1 PUSH1 0x1 PUSH1 0x0 CALLER PUSH20 0xFFFFFFFFFFFFFFFFFFFFFFFFFFFFFFFFFFFFFFFF AND PUSH20 0xFFFFFFFFFFFFFFFFFFFFFFFFFFFFFFFFFFFFFFFF AND DUP2 MSTORE PUSH1 0x20 ADD SWAP1 DUP2 MSTORE PUSH1 0x20 ADD PUSH1 0x0 SHA3 PUSH1 0x0 DUP3 DUP3 SLOAD SUB SWAP3 POP POP DUP2 SWAP1 SSTORE POP JUMPDEST POP POP JUMP STOP LOG1 PUSH6 0x627A7A723058 SHA3 0xcd PUSH17 0x48FB31A80611F69D89CD9551FA59630350 CALLDATALOAD MLOAD 0xe5 EQ 0xae GASLIMIT SLT 0x2f SWAP3 JUMPI SWAP5 0x4a 0xcd STOP 0x29 ",
			"linkReferences": {}
		},
		"gasEstimates": {
			"creation": {
				"codeDepositCost": "180800",
				"executionCost": "20340"
			},
			"internal": {},
			"external": {
				"balanceOf()": "335",
				"balanceOf(address)": "359",
				"deposit()": "20304",
				"withdraw(address,uint256)": "infinite"
			}
		},
		"methodIdentifiers": {
			"balanceOf()": "722713f7",
			"balanceOf(address)": "70a08231",
			"deposit()": "d0e30db0",
			"withdraw(address,uint256)": "f3fef3a3"
		}
	},
	"abi": [
		{
			"constant": false,
			"inputs": [
				{
					"name": "addr",
					"type": "address"
				}
			],
			"name": "balanceOf",
			"outputs": [
				{
					"name": "",
					"type": "uint256"
				}
			],
			"payable": false,
			"type": "function",
			"stateMutability": "nonpayable"
		},
		{
			"constant": false,
			"inputs": [],
			"name": "balanceOf",
			"outputs": [
				{
					"name": "",
					"type": "uint256"
				}
			],
			"payable": false,
			"type": "function",
			"stateMutability": "nonpayable"
		},
		{
			"constant": false,
			"inputs": [],
			"name": "deposit",
			"outputs": [],
			"payable": true,
			"type": "function",
			"stateMutability": "payable"
		},
		{
			"constant": false,
			"inputs": [
				{
					"name": "to",
					"type": "address"
				},
				{
					"name": "amount",
					"type": "uint256"
				}
			],
			"name": "withdraw",
			"outputs": [],
			"payable": false,
			"type": "function",
			"stateMutability": "nonpayable"
		},
		{
			"inputs": [],
			"payable": false,
			"type": "constructor",
			"stateMutability": "nonpayable"
		},
		{
			"anonymous": false,
			"inputs": [
				{
					"indexed": false,
					"name": "",
					"type": "address"
				},
				{
					"indexed": false,
					"name": "",
					"type": "uint256"
				}
			],
			"name": "withdrawLog",
			"type": "event"
		}
	]
}